{
  "contractName": "Distributor",
  "abi": [
    {
      "inputs": [],
      "stateMutability": "nonpayable",
      "type": "constructor"
    },
    {
      "inputs": [
        {
          "internalType": "address",
          "name": "",
          "type": "address"
        }
      ],
      "name": "distributor_map",
      "outputs": [
        {
          "internalType": "uint256",
          "name": "distributor_id",
          "type": "uint256"
        },
        {
          "internalType": "string",
          "name": "distributor_name",
          "type": "string"
        },
        {
          "internalType": "address",
          "name": "distributor_add",
          "type": "address"
        },
        {
          "internalType": "uint256",
          "name": "distributor_rating",
          "type": "uint256"
        },
        {
          "internalType": "string",
          "name": "distributor_phone",
          "type": "string"
        },
        {
          "internalType": "string",
          "name": "distributor_email",
          "type": "string"
        }
      ],
      "stateMutability": "view",
      "type": "function",
      "constant": true
    },
    {
      "inputs": [
        {
          "internalType": "uint256",
          "name": "",
          "type": "uint256"
        }
      ],
      "name": "order_map",
      "outputs": [
        {
          "internalType": "uint256",
          "name": "order_id",
          "type": "uint256"
        },
        {
          "internalType": "uint256",
          "name": "order_price",
          "type": "uint256"
        },
        {
          "internalType": "bool",
          "name": "status",
          "type": "bool"
        },
        {
          "internalType": "address",
          "name": "farmer_address",
          "type": "address"
        },
        {
          "internalType": "address",
          "name": "customer_address",
          "type": "address"
        }
      ],
      "stateMutability": "view",
      "type": "function",
      "constant": true
    },
    {
      "inputs": [
        {
          "internalType": "string",
          "name": "_name",
          "type": "string"
        },
        {
          "internalType": "string",
          "name": "_phone",
          "type": "string"
        },
        {
          "internalType": "string",
          "name": "_email",
          "type": "string"
        }
      ],
      "name": "setDetailsDistributor",
      "outputs": [],
      "stateMutability": "nonpayable",
      "type": "function"
    }
  ],
  "bytecode": "0x608060405234801561001057600080fd5b506000600360003373ffffffffffffffffffffffffffffffffffffffff1673ffffffffffffffffffffffffffffffffffffffff1681526020019081526020016000209050338160020160006101000a81548173ffffffffffffffffffffffffffffffffffffffff021916908373ffffffffffffffffffffffffffffffffffffffff16021790555050610a2f806100a76000396000f3fe608060405234801561001057600080fd5b50600436106100415760003560e01c806338f1ef9e1461004657806388c9a00c14610062578063dec3a60114610096575b600080fd5b610060600480360381019061005b9190610603565b6100cb565b005b61007c600480360381019061007791906106e0565b61018f565b60405161008d959493929190610778565b60405180910390f35b6100b060048036038101906100ab91906107f7565b610212565b6040516100c2969594939291906108ac565b60405180910390f35b6000600360003373ffffffffffffffffffffffffffffffffffffffff1673ffffffffffffffffffffffffffffffffffffffff1681526020019081526020016000209050600081600001540361013e576002600081548092919061012d90610951565b919050555060025481600001819055505b83816001019080519060200190610156929190610406565b508281600401908051906020019061016f929190610406565b5081816005019080519060200190610188929190610406565b5050505050565b60016020528060005260406000206000915090508060000154908060010154908060020160009054906101000a900460ff16908060040160009054906101000a900473ffffffffffffffffffffffffffffffffffffffff16908060050160009054906101000a900473ffffffffffffffffffffffffffffffffffffffff16905085565b600360205280600052604060002060009150905080600001549080600101805461023b906109c8565b80601f0160208091040260200160405190810160405280929190818152602001828054610267906109c8565b80156102b45780601f10610289576101008083540402835291602001916102b4565b820191906000526020600020905b81548152906001019060200180831161029757829003601f168201915b5050505050908060020160009054906101000a900473ffffffffffffffffffffffffffffffffffffffff16908060030154908060040180546102f5906109c8565b80601f0160208091040260200160405190810160405280929190818152602001828054610321906109c8565b801561036e5780601f106103435761010080835404028352916020019161036e565b820191906000526020600020905b81548152906001019060200180831161035157829003601f168201915b505050505090806005018054610383906109c8565b80601f01602080910402602001604051908101604052809291908181526020018280546103af906109c8565b80156103fc5780601f106103d1576101008083540402835291602001916103fc565b820191906000526020600020905b8154815290600101906020018083116103df57829003601f168201915b5050505050905086565b828054610412906109c8565b90600052602060002090601f016020900481019282610434576000855561047b565b82601f1061044d57805160ff191683800117855561047b565b8280016001018555821561047b579182015b8281111561047a57825182559160200191906001019061045f565b5b509050610488919061048c565b5090565b5b808211156104a557600081600090555060010161048d565b5090565b6000604051905090565b600080fd5b600080fd5b600080fd5b600080fd5b6000601f19601f8301169050919050565b7f4e487b7100000000000000000000000000000000000000000000000000000000600052604160045260246000fd5b610510826104c7565b810181811067ffffffffffffffff8211171561052f5761052e6104d8565b5b80604052505050565b60006105426104a9565b905061054e8282610507565b919050565b600067ffffffffffffffff82111561056e5761056d6104d8565b5b610577826104c7565b9050602081019050919050565b82818337600083830152505050565b60006105a66105a184610553565b610538565b9050828152602081018484840111156105c2576105c16104c2565b5b6105cd848285610584565b509392505050565b600082601f8301126105ea576105e96104bd565b5b81356105fa848260208601610593565b91505092915050565b60008060006060848603121561061c5761061b6104b3565b5b600084013567ffffffffffffffff81111561063a576106396104b8565b5b610646868287016105d5565b935050602084013567ffffffffffffffff811115610667576106666104b8565b5b610673868287016105d5565b925050604084013567ffffffffffffffff811115610694576106936104b8565b5b6106a0868287016105d5565b9150509250925092565b6000819050919050565b6106bd816106aa565b81146106c857600080fd5b50565b6000813590506106da816106b4565b92915050565b6000602082840312156106f6576106f56104b3565b5b6000610704848285016106cb565b91505092915050565b610716816106aa565b82525050565b60008115159050919050565b6107318161071c565b82525050565b600073ffffffffffffffffffffffffffffffffffffffff82169050919050565b600061076282610737565b9050919050565b61077281610757565b82525050565b600060a08201905061078d600083018861070d565b61079a602083018761070d565b6107a76040830186610728565b6107b46060830185610769565b6107c16080830184610769565b9695505050505050565b6107d481610757565b81146107df57600080fd5b50565b6000813590506107f1816107cb565b92915050565b60006020828403121561080d5761080c6104b3565b5b600061081b848285016107e2565b91505092915050565b600081519050919050565b600082825260208201905092915050565b60005b8381101561085e578082015181840152602081019050610843565b8381111561086d576000848401525b50505050565b600061087e82610824565b610888818561082f565b9350610898818560208601610840565b6108a1816104c7565b840191505092915050565b600060c0820190506108c1600083018961070d565b81810360208301526108d38188610873565b90506108e26040830187610769565b6108ef606083018661070d565b81810360808301526109018185610873565b905081810360a08301526109158184610873565b9050979650505050505050565b7f4e487b7100000000000000000000000000000000000000000000000000000000600052601160045260246000fd5b600061095c826106aa565b91507fffffffffffffffffffffffffffffffffffffffffffffffffffffffffffffffff820361098e5761098d610922565b5b600182019050919050565b7f4e487b7100000000000000000000000000000000000000000000000000000000600052602260045260246000fd5b600060028204905060018216806109e057607f821691505b6020821081036109f3576109f2610999565b5b5091905056fea26469706673582212205e9984a7cdaec765dc585e6e8cd319d206fe2196bd7533f5003ee1c5fd716e7664736f6c634300080d0033",
  "immutableReferences": {},
  "source": "// SPDX-License-Identifier: MIT\r\npragma solidity >=0.4.22 <0.9.0;\r\nimport \"./order.sol\";\r\ncontract Distributor is Order{\r\n    uint distributor_count;\r\n    struct distributor{\r\n        uint distributor_id;\r\n        string distributor_name;\r\n        address distributor_add;\r\n        uint distributor_rating;\r\n        string distributor_phone;\r\n        string distributor_email;\r\n        order[] orders;\r\n    }\r\n    mapping(address=>distributor) public distributor_map;\r\n\r\n    constructor(){\r\n        distributor storage d = distributor_map[msg.sender];\r\n        d.distributor_add=msg.sender;\r\n    }\r\n    function setDetailsDistributor(string memory _name,string memory _phone,string memory _email) public{\r\n        distributor storage d = distributor_map[msg.sender];\r\n        if(d.distributor_id==0)\r\n        {\r\n        distributor_count++;\r\n        d.distributor_id=distributor_count;\r\n        }\r\n        d.distributor_name=_name;\r\n        d.distributor_phone=_phone;\r\n        d.distributor_email=_email;  \r\n    }\r\n    \r\n\r\n}",
  "sourcePath": "C:\\Users\\shubh\\OneDrive\\Desktop\\Agriculture-Supply-Chain-Management\\ASCM\\contracts\\distributor.sol",
  "compiler": {
    "name": "solc",
    "version": "0.8.13+commit.abaa5c0e.Emscripten.clang"
  },
  "schemaVersion": "3.4.7",
  "updatedAt": "2022-04-24T13:56:01.166Z",
  "networkType": "ethereum",
  "devdoc": {
    "kind": "dev",
    "methods": {},
    "version": 1
  },
  "userdoc": {
    "kind": "user",
    "methods": {},
    "version": 1
  }
}