{
  "contractName": "Farmer",
  "abi": [
    {
      "inputs": [
        {
          "internalType": "address",
          "name": "",
          "type": "address"
        }
      ],
      "name": "distributor_map",
      "outputs": [
        {
          "internalType": "uint256",
          "name": "distributor_id",
          "type": "uint256"
        },
        {
          "internalType": "string",
          "name": "distributor_name",
          "type": "string"
        },
        {
          "internalType": "address",
          "name": "distributor_add",
          "type": "address"
        },
        {
          "internalType": "uint256",
          "name": "distributor_rating",
          "type": "uint256"
        },
        {
          "internalType": "string",
          "name": "distributor_phone",
          "type": "string"
        },
        {
          "internalType": "string",
          "name": "distributor_email",
          "type": "string"
        }
      ],
      "stateMutability": "view",
      "type": "function",
      "constant": true
    },
    {
      "inputs": [
        {
          "internalType": "address",
          "name": "",
          "type": "address"
        }
      ],
      "name": "farmer_map",
      "outputs": [
        {
          "internalType": "uint256",
          "name": "farmer_id",
          "type": "uint256"
        },
        {
          "internalType": "string",
          "name": "farmer_name",
          "type": "string"
        },
        {
          "internalType": "address",
          "name": "farmer_add",
          "type": "address"
        },
        {
          "internalType": "address",
          "name": "distributor_add",
          "type": "address"
        },
        {
          "internalType": "uint256",
          "name": "rating",
          "type": "uint256"
        },
        {
          "internalType": "string",
          "name": "farmer_location",
          "type": "string"
        },
        {
          "internalType": "string",
          "name": "farmer_phone",
          "type": "string"
        },
        {
          "internalType": "string",
          "name": "farmer_email",
          "type": "string"
        }
      ],
      "stateMutability": "view",
      "type": "function",
      "constant": true
    },
    {
      "inputs": [
        {
          "internalType": "uint256",
          "name": "",
          "type": "uint256"
        }
      ],
      "name": "order_map",
      "outputs": [
        {
          "internalType": "uint256",
          "name": "order_id",
          "type": "uint256"
        },
        {
          "internalType": "uint256",
          "name": "order_price",
          "type": "uint256"
        },
        {
          "internalType": "bool",
          "name": "status",
          "type": "bool"
        },
        {
          "internalType": "address",
          "name": "farmer_address",
          "type": "address"
        },
        {
          "internalType": "address",
          "name": "customer_address",
          "type": "address"
        }
      ],
      "stateMutability": "view",
      "type": "function",
      "constant": true
    },
    {
      "inputs": [
        {
          "internalType": "uint256",
          "name": "",
          "type": "uint256"
        }
      ],
      "name": "product_map",
      "outputs": [
        {
          "internalType": "uint256",
          "name": "product_id",
          "type": "uint256"
        },
        {
          "internalType": "string",
          "name": "product_name",
          "type": "string"
        },
        {
          "internalType": "uint256",
          "name": "product_price",
          "type": "uint256"
        },
        {
          "internalType": "uint256",
          "name": "product_amount",
          "type": "uint256"
        },
        {
          "internalType": "string",
          "name": "product_category",
          "type": "string"
        },
        {
          "internalType": "bool",
          "name": "isAuthorised",
          "type": "bool"
        },
        {
          "internalType": "address",
          "name": "owner",
          "type": "address"
        }
      ],
      "stateMutability": "view",
      "type": "function",
      "constant": true
    },
    {
      "inputs": [
        {
          "internalType": "string",
          "name": "_name",
          "type": "string"
        },
        {
          "internalType": "string",
          "name": "_phone",
          "type": "string"
        },
        {
          "internalType": "string",
          "name": "_email",
          "type": "string"
        }
      ],
      "name": "setDetailsDistributor",
      "outputs": [],
      "stateMutability": "nonpayable",
      "type": "function"
    },
    {
      "inputs": [
        {
          "internalType": "string",
          "name": "_name",
          "type": "string"
        },
        {
          "internalType": "string",
          "name": "_location",
          "type": "string"
        },
        {
          "internalType": "string",
          "name": "_phone",
          "type": "string"
        },
        {
          "internalType": "string",
          "name": "_email",
          "type": "string"
        }
      ],
      "name": "setFarmerDetails",
      "outputs": [],
      "stateMutability": "nonpayable",
      "type": "function"
    },
    {
      "inputs": [
        {
          "internalType": "address payable",
          "name": "_distributorAddress",
          "type": "address"
        }
      ],
      "name": "setDistributor",
      "outputs": [],
      "stateMutability": "nonpayable",
      "type": "function"
    },
    {
      "inputs": [
        {
          "internalType": "string",
          "name": "_name",
          "type": "string"
        },
        {
          "internalType": "uint256",
          "name": "_price",
          "type": "uint256"
        },
        {
          "internalType": "string",
          "name": "_category",
          "type": "string"
        },
        {
          "internalType": "uint256",
          "name": "_amount",
          "type": "uint256"
        }
      ],
      "name": "createProduct",
      "outputs": [],
      "stateMutability": "nonpayable",
      "type": "function"
    },
    {
      "inputs": [],
      "name": "viewProductsFarmer",
      "outputs": [
        {
          "components": [
            {
              "internalType": "uint256",
              "name": "product_id",
              "type": "uint256"
            },
            {
              "internalType": "string",
              "name": "product_name",
              "type": "string"
            },
            {
              "internalType": "uint256",
              "name": "product_price",
              "type": "uint256"
            },
            {
              "internalType": "uint256",
              "name": "product_amount",
              "type": "uint256"
            },
            {
              "internalType": "string",
              "name": "product_category",
              "type": "string"
            },
            {
              "internalType": "bool",
              "name": "isAuthorised",
              "type": "bool"
            },
            {
              "internalType": "address",
              "name": "owner",
              "type": "address"
            }
          ],
          "internalType": "struct Product.product[]",
          "name": "",
          "type": "tuple[]"
        }
      ],
      "stateMutability": "view",
      "type": "function",
      "constant": true
    },
    {
      "inputs": [
        {
          "internalType": "uint256[]",
          "name": "_products",
          "type": "uint256[]"
        },
        {
          "internalType": "address",
          "name": "_customerAddress",
          "type": "address"
        },
        {
          "internalType": "address",
          "name": "_farmerAddress",
          "type": "address"
        }
      ],
      "name": "processOrder",
      "outputs": [],
      "stateMutability": "nonpayable",
      "type": "function"
    }
  ],
  "bytecode": "0x608060405234801561001057600080fd5b506000600560003373ffffffffffffffffffffffffffffffffffffffff1673ffffffffffffffffffffffffffffffffffffffff1681526020019081526020016000209050338160020160006101000a81548173ffffffffffffffffffffffffffffffffffffffff021916908373ffffffffffffffffffffffffffffffffffffffff16021790555050612012806100a76000396000f3fe608060405234801561001057600080fd5b506004361061009e5760003560e01c80638fdbffe7116100665780638fdbffe714610147578063a06fc3461461017e578063c013435f1461019a578063dec3a601146101d0578063ffdf3452146102055761009e565b806335e0e59e146100a357806338f1ef9e146100bf5780635fc412ec146100db57806375619ab5146100f757806388c9a00c14610113575b600080fd5b6100bd60048036038101906100b891906115b9565b610223565b005b6100d960048036038101906100d49190611690565b610344565b005b6100f560048036038101906100f09190611893565b610408565b005b610111600480360381019061010c9190611940565b6106e1565b005b61012d6004803603810190610128919061196d565b61076b565b60405161013e9594939291906119d3565b60405180910390f35b610161600480360381019061015c9190611a26565b6107ee565b604051610175989796959493929190611adb565b60405180910390f35b61019860048036038101906101939190611b75565b610a96565b005b6101b460048036038101906101af919061196d565b610ccb565b6040516101c79796959493929190611c14565b60405180910390f35b6101ea60048036038101906101e59190611a26565b610e4a565b6040516101fc96959493929190611c91565b60405180910390f35b61020d61103e565b60405161021a9190611ee3565b60405180910390f35b6000600760003373ffffffffffffffffffffffffffffffffffffffff1673ffffffffffffffffffffffffffffffffffffffff1681526020019081526020016000209050338160020160006101000a81548173ffffffffffffffffffffffffffffffffffffffff021916908373ffffffffffffffffffffffffffffffffffffffff16021790555060008160000154036102d957600660008154809291906102c890611f34565b919050555060065481600001819055505b818160070190805190602001906102f1929190611290565b508281600601908051906020019061030a929190611290565b5084816001019080519060200190610323929190611290565b508381600501908051906020019061033c929190611290565b505050505050565b6000600560003373ffffffffffffffffffffffffffffffffffffffff1673ffffffffffffffffffffffffffffffffffffffff168152602001908152602001600020905060008160000154036103b757600460008154809291906103a690611f34565b919050555060045481600001819055505b838160010190805190602001906103cf929190611290565b50828160040190805190602001906103e8929190611290565b5081816005019080519060200190610401929190611290565b5050505050565b6002600081548092919061041b90611f34565b91905055506000600760008373ffffffffffffffffffffffffffffffffffffffff1673ffffffffffffffffffffffffffffffffffffffff1681526020019081526020016000209050600060036000600254815260200190815260200160002090506002548160000181905550838160050160006101000a81548173ffffffffffffffffffffffffffffffffffffffff021916908373ffffffffffffffffffffffffffffffffffffffff160217905550828160040160006101000a81548173ffffffffffffffffffffffffffffffffffffffff021916908373ffffffffffffffffffffffffffffffffffffffff16021790555084816003019080519060200190610525929190611316565b506000600560008460030160009054906101000a900473ffffffffffffffffffffffffffffffffffffffff1673ffffffffffffffffffffffffffffffffffffffff1673ffffffffffffffffffffffffffffffffffffffff1681526020019081526020016000209050818160060160018160018154018082558091505003906000526020600020906006020160008201548160000155600182015481600101556002820160009054906101000a900460ff168160020160006101000a81548160ff0219169083151502179055506003820181600301908054610607929190611363565b506004820160009054906101000a900473ffffffffffffffffffffffffffffffffffffffff168160040160006101000a81548173ffffffffffffffffffffffffffffffffffffffff021916908373ffffffffffffffffffffffffffffffffffffffff1602179055506005820160009054906101000a900473ffffffffffffffffffffffffffffffffffffffff168160050160006101000a81548173ffffffffffffffffffffffffffffffffffffffff021916908373ffffffffffffffffffffffffffffffffffffffff160217905550905050505050505050565b6000600760003373ffffffffffffffffffffffffffffffffffffffff1673ffffffffffffffffffffffffffffffffffffffff1681526020019081526020016000209050818160030160006101000a81548173ffffffffffffffffffffffffffffffffffffffff021916908373ffffffffffffffffffffffffffffffffffffffff1602179055505050565b60036020528060005260406000206000915090508060000154908060010154908060020160009054906101000a900460ff16908060040160009054906101000a900473ffffffffffffffffffffffffffffffffffffffff16908060050160009054906101000a900473ffffffffffffffffffffffffffffffffffffffff16905085565b600760205280600052604060002060009150905080600001549080600101805461081790611fab565b80601f016020809104026020016040519081016040528092919081815260200182805461084390611fab565b80156108905780601f1061086557610100808354040283529160200191610890565b820191906000526020600020905b81548152906001019060200180831161087357829003601f168201915b5050505050908060020160009054906101000a900473ffffffffffffffffffffffffffffffffffffffff16908060030160009054906101000a900473ffffffffffffffffffffffffffffffffffffffff16908060040154908060050180546108f790611fab565b80601f016020809104026020016040519081016040528092919081815260200182805461092390611fab565b80156109705780601f1061094557610100808354040283529160200191610970565b820191906000526020600020905b81548152906001019060200180831161095357829003601f168201915b50505050509080600601805461098590611fab565b80601f01602080910402602001604051908101604052809291908181526020018280546109b190611fab565b80156109fe5780601f106109d3576101008083540402835291602001916109fe565b820191906000526020600020905b8154815290600101906020018083116109e157829003601f168201915b505050505090806007018054610a1390611fab565b80601f0160208091040260200160405190810160405280929190818152602001828054610a3f90611fab565b8015610a8c5780601f10610a6157610100808354040283529160200191610a8c565b820191906000526020600020905b815481529060010190602001808311610a6f57829003601f168201915b5050505050905088565b6000600160008054815260200190815260200160002090506000816000015403610add57600080815480929190610acc90611f34565b919050555060005481600001819055505b84816001019080519060200190610af5929190611290565b50818160030181905550838160020181905550338160050160016101000a81548173ffffffffffffffffffffffffffffffffffffffff021916908373ffffffffffffffffffffffffffffffffffffffff16021790555082816004019080519060200190610b63929190611290565b50600760003373ffffffffffffffffffffffffffffffffffffffff1673ffffffffffffffffffffffffffffffffffffffff168152602001908152602001600020600801819080600181540180825580915050600190039060005260206000209060060201600090919091909150600082015481600001556001820181600101908054610bee90611fab565b610bf99291906113b5565b5060028201548160020155600382015481600301556004820181600401908054610c2290611fab565b610c2d9291906113b5565b506005820160009054906101000a900460ff168160050160006101000a81548160ff0219169083151502179055506005820160019054906101000a900473ffffffffffffffffffffffffffffffffffffffff168160050160016101000a81548173ffffffffffffffffffffffffffffffffffffffff021916908373ffffffffffffffffffffffffffffffffffffffff16021790555050505050505050565b6001602052806000526040600020600091509050806000015490806001018054610cf490611fab565b80601f0160208091040260200160405190810160405280929190818152602001828054610d2090611fab565b8015610d6d5780601f10610d4257610100808354040283529160200191610d6d565b820191906000526020600020905b815481529060010190602001808311610d5057829003601f168201915b505050505090806002015490806003015490806004018054610d8e90611fab565b80601f0160208091040260200160405190810160405280929190818152602001828054610dba90611fab565b8015610e075780601f10610ddc57610100808354040283529160200191610e07565b820191906000526020600020905b815481529060010190602001808311610dea57829003601f168201915b5050505050908060050160009054906101000a900460ff16908060050160019054906101000a900473ffffffffffffffffffffffffffffffffffffffff16905087565b6005602052806000526040600020600091509050806000015490806001018054610e7390611fab565b80601f0160208091040260200160405190810160405280929190818152602001828054610e9f90611fab565b8015610eec5780601f10610ec157610100808354040283529160200191610eec565b820191906000526020600020905b815481529060010190602001808311610ecf57829003601f168201915b5050505050908060020160009054906101000a900473ffffffffffffffffffffffffffffffffffffffff1690806003015490806004018054610f2d90611fab565b80601f0160208091040260200160405190810160405280929190818152602001828054610f5990611fab565b8015610fa65780601f10610f7b57610100808354040283529160200191610fa6565b820191906000526020600020905b815481529060010190602001808311610f8957829003601f168201915b505050505090806005018054610fbb90611fab565b80601f0160208091040260200160405190810160405280929190818152602001828054610fe790611fab565b80156110345780601f1061100957610100808354040283529160200191611034565b820191906000526020600020905b81548152906001019060200180831161101757829003601f168201915b5050505050905086565b6060600760003373ffffffffffffffffffffffffffffffffffffffff1673ffffffffffffffffffffffffffffffffffffffff168152602001908152602001600020600801805480602002602001604051908101604052809291908181526020016000905b8282101561128757838290600052602060002090600602016040518060e0016040529081600082015481526020016001820180546110df90611fab565b80601f016020809104026020016040519081016040528092919081815260200182805461110b90611fab565b80156111585780601f1061112d57610100808354040283529160200191611158565b820191906000526020600020905b81548152906001019060200180831161113b57829003601f168201915b50505050508152602001600282015481526020016003820154815260200160048201805461118590611fab565b80601f01602080910402602001604051908101604052809291908181526020018280546111b190611fab565b80156111fe5780601f106111d3576101008083540402835291602001916111fe565b820191906000526020600020905b8154815290600101906020018083116111e157829003601f168201915b505050505081526020016005820160009054906101000a900460ff161515151581526020016005820160019054906101000a900473ffffffffffffffffffffffffffffffffffffffff1673ffffffffffffffffffffffffffffffffffffffff1673ffffffffffffffffffffffffffffffffffffffff1681525050815260200190600101906110a2565b50505050905090565b82805461129c90611fab565b90600052602060002090601f0160209004810192826112be5760008555611305565b82601f106112d757805160ff1916838001178555611305565b82800160010185558215611305579182015b828111156113045782518255916020019190600101906112e9565b5b5090506113129190611442565b5090565b828054828255906000526020600020908101928215611352579160200282015b82811115611351578251825591602001919060010190611336565b5b50905061135f9190611442565b5090565b8280548282559060005260206000209081019282156113a45760005260206000209182015b828111156113a3578254825591600101919060010190611388565b5b5090506113b19190611442565b5090565b8280546113c190611fab565b90600052602060002090601f0160209004810192826113e35760008555611431565b82601f106113f45780548555611431565b8280016001018555821561143157600052602060002091601f016020900482015b82811115611430578254825591600101919060010190611415565b5b50905061143e9190611442565b5090565b5b8082111561145b576000816000905550600101611443565b5090565b6000604051905090565b600080fd5b600080fd5b600080fd5b600080fd5b6000601f19601f8301169050919050565b7f4e487b7100000000000000000000000000000000000000000000000000000000600052604160045260246000fd5b6114c68261147d565b810181811067ffffffffffffffff821117156114e5576114e461148e565b5b80604052505050565b60006114f861145f565b905061150482826114bd565b919050565b600067ffffffffffffffff8211156115245761152361148e565b5b61152d8261147d565b9050602081019050919050565b82818337600083830152505050565b600061155c61155784611509565b6114ee565b90508281526020810184848401111561157857611577611478565b5b61158384828561153a565b509392505050565b600082601f8301126115a05761159f611473565b5b81356115b0848260208601611549565b91505092915050565b600080600080608085870312156115d3576115d2611469565b5b600085013567ffffffffffffffff8111156115f1576115f061146e565b5b6115fd8782880161158b565b945050602085013567ffffffffffffffff81111561161e5761161d61146e565b5b61162a8782880161158b565b935050604085013567ffffffffffffffff81111561164b5761164a61146e565b5b6116578782880161158b565b925050606085013567ffffffffffffffff8111156116785761167761146e565b5b6116848782880161158b565b91505092959194509250565b6000806000606084860312156116a9576116a8611469565b5b600084013567ffffffffffffffff8111156116c7576116c661146e565b5b6116d38682870161158b565b935050602084013567ffffffffffffffff8111156116f4576116f361146e565b5b6117008682870161158b565b925050604084013567ffffffffffffffff8111156117215761172061146e565b5b61172d8682870161158b565b9150509250925092565b600067ffffffffffffffff8211156117525761175161148e565b5b602082029050602081019050919050565b600080fd5b6000819050919050565b61177b81611768565b811461178657600080fd5b50565b60008135905061179881611772565b92915050565b60006117b16117ac84611737565b6114ee565b905080838252602082019050602084028301858111156117d4576117d3611763565b5b835b818110156117fd57806117e98882611789565b8452602084019350506020810190506117d6565b5050509392505050565b600082601f83011261181c5761181b611473565b5b813561182c84826020860161179e565b91505092915050565b600073ffffffffffffffffffffffffffffffffffffffff82169050919050565b600061186082611835565b9050919050565b61187081611855565b811461187b57600080fd5b50565b60008135905061188d81611867565b92915050565b6000806000606084860312156118ac576118ab611469565b5b600084013567ffffffffffffffff8111156118ca576118c961146e565b5b6118d686828701611807565b93505060206118e78682870161187e565b92505060406118f88682870161187e565b9150509250925092565b600061190d82611835565b9050919050565b61191d81611902565b811461192857600080fd5b50565b60008135905061193a81611914565b92915050565b60006020828403121561195657611955611469565b5b60006119648482850161192b565b91505092915050565b60006020828403121561198357611982611469565b5b600061199184828501611789565b91505092915050565b6119a381611768565b82525050565b60008115159050919050565b6119be816119a9565b82525050565b6119cd81611855565b82525050565b600060a0820190506119e8600083018861199a565b6119f5602083018761199a565b611a0260408301866119b5565b611a0f60608301856119c4565b611a1c60808301846119c4565b9695505050505050565b600060208284031215611a3c57611a3b611469565b5b6000611a4a8482850161187e565b91505092915050565b600081519050919050565b600082825260208201905092915050565b60005b83811015611a8d578082015181840152602081019050611a72565b83811115611a9c576000848401525b50505050565b6000611aad82611a53565b611ab78185611a5e565b9350611ac7818560208601611a6f565b611ad08161147d565b840191505092915050565b600061010082019050611af1600083018b61199a565b8181036020830152611b03818a611aa2565b9050611b1260408301896119c4565b611b1f60608301886119c4565b611b2c608083018761199a565b81810360a0830152611b3e8186611aa2565b905081810360c0830152611b528185611aa2565b905081810360e0830152611b668184611aa2565b90509998505050505050505050565b60008060008060808587031215611b8f57611b8e611469565b5b600085013567ffffffffffffffff811115611bad57611bac61146e565b5b611bb98782880161158b565b9450506020611bca87828801611789565b935050604085013567ffffffffffffffff811115611beb57611bea61146e565b5b611bf78782880161158b565b9250506060611c0887828801611789565b91505092959194509250565b600060e082019050611c29600083018a61199a565b8181036020830152611c3b8189611aa2565b9050611c4a604083018861199a565b611c57606083018761199a565b8181036080830152611c698186611aa2565b9050611c7860a08301856119b5565b611c8560c08301846119c4565b98975050505050505050565b600060c082019050611ca6600083018961199a565b8181036020830152611cb88188611aa2565b9050611cc760408301876119c4565b611cd4606083018661199a565b8181036080830152611ce68185611aa2565b905081810360a0830152611cfa8184611aa2565b9050979650505050505050565b600081519050919050565b600082825260208201905092915050565b6000819050602082019050919050565b611d3c81611768565b82525050565b600082825260208201905092915050565b6000611d5e82611a53565b611d688185611d42565b9350611d78818560208601611a6f565b611d818161147d565b840191505092915050565b611d95816119a9565b82525050565b611da481611855565b82525050565b600060e083016000830151611dc26000860182611d33565b5060208301518482036020860152611dda8282611d53565b9150506040830151611def6040860182611d33565b506060830151611e026060860182611d33565b5060808301518482036080860152611e1a8282611d53565b91505060a0830151611e2f60a0860182611d8c565b5060c0830151611e4260c0860182611d9b565b508091505092915050565b6000611e598383611daa565b905092915050565b6000602082019050919050565b6000611e7982611d07565b611e838185611d12565b935083602082028501611e9585611d23565b8060005b85811015611ed15784840389528151611eb28582611e4d565b9450611ebd83611e61565b925060208a01995050600181019050611e99565b50829750879550505050505092915050565b60006020820190508181036000830152611efd8184611e6e565b905092915050565b7f4e487b7100000000000000000000000000000000000000000000000000000000600052601160045260246000fd5b6000611f3f82611768565b91507fffffffffffffffffffffffffffffffffffffffffffffffffffffffffffffffff8203611f7157611f70611f05565b5b600182019050919050565b7f4e487b7100000000000000000000000000000000000000000000000000000000600052602260045260246000fd5b60006002820490506001821680611fc357607f821691505b602082108103611fd657611fd5611f7c565b5b5091905056fea26469706673582212206f3e46d50cba6f5490836352cb92e610c0782c6a20731e316b1d298db7b88c7564736f6c634300080d0033",
  "immutableReferences": {},
  "source": "// SPDX-License-Identifier: MIT\r\npragma solidity >=0.4.22 <0.9.0;\r\nimport \"./product.sol\";\r\nimport \"./order.sol\";\r\nimport \"./customer.sol\";\r\nimport \"./distributor.sol\";\r\ncontract Farmer is Product,Distributor{\r\n    uint farmer_count;\r\n    struct farmer{\r\n        uint farmer_id;\r\n        string farmer_name;\r\n        address farmer_add;\r\n        address distributor_add;\r\n        uint rating;\r\n        string farmer_location;\r\n        string farmer_phone;\r\n        string farmer_email;\r\n        product[] farmer_product;\r\n    }\r\n    //address[] farmerAddress;\r\n    //mapping for all products of farmer using it's address\r\n    //mapping(address=>product[]) farmers_products_map;\r\n    mapping(address=>farmer) public farmer_map;\r\n    // constructor(){\r\n    //     farmer storage f= farmer_map[msg.sender];\r\n    //     f.farmer_add=msg.sender;\r\n    // }\r\n\r\n    //OK\r\n    function setFarmerDetails(string memory _name,string memory _location,string memory _phone,string memory _email) public{\r\n        farmer storage f= farmer_map[msg.sender];\r\n        f.farmer_add=msg.sender;\r\n        if(f.farmer_id==0)\r\n        {\r\n            farmer_count++;\r\n            f.farmer_id=farmer_count;\r\n        }\r\n        f.farmer_email=_email;\r\n        f.farmer_phone=_phone;\r\n        f.farmer_name=_name;\r\n        f.farmer_location=_location;\r\n    }\r\n    //OK\r\n    function setDistributor(address payable _distributorAddress) public\r\n    {\r\n        farmer storage f= farmer_map[msg.sender];\r\n        f.distributor_add=_distributorAddress;\r\n    }\r\n        // function placeOrder(address _to) public\r\n        //OK\r\n    function createProduct(string memory _name,uint _price,string memory _category,uint _amount) public{\r\n           product storage p=product_map[pid];\r\n            if(p.product_id==0)\r\n            {\r\n                pid++;\r\n                p.product_id=pid;\r\n            }\r\n            p.product_name=_name;\r\n            p.product_amount=_amount;\r\n            p.product_price=_price;\r\n            p.owner=msg.sender;\r\n            p.product_category=_category;\r\n            farmer_map[msg.sender].farmer_product.push(p);\r\n    }\r\n    //OK\r\n    function viewProductsFarmer() public view returns (product[] memory)\r\n    {\r\n        return farmer_map[msg.sender].farmer_product;\r\n    }\r\n\r\n    function processOrder(uint[] memory _products, address _customerAddress,address _farmerAddress) public{\r\n            order_count++;\r\n            farmer storage f=farmer_map[_farmerAddress];\r\n            order storage o = order_map[order_count];\r\n            o.order_id=order_count;\r\n            //o.order_price = order_price_map[_customerAddress]; \r\n            o.customer_address=_customerAddress;\r\n            o.farmer_address=_farmerAddress;\r\n            o.product_items=_products;\r\n            distributor storage d=distributor_map[f.distributor_add];\r\n            d.orders.push()=o;\r\n    }\r\n}",
  "sourcePath": "C:\\Users\\shubh\\OneDrive\\Desktop\\Agriculture-Supply-Chain-Management\\ASCM\\contracts\\farmer.sol",
  "compiler": {
    "name": "solc",
    "version": "0.8.13+commit.abaa5c0e.Emscripten.clang"
  },
  "schemaVersion": "3.4.7",
  "updatedAt": "2022-04-24T13:56:04.356Z",
  "networkType": "ethereum",
  "devdoc": {
    "kind": "dev",
    "methods": {},
    "version": 1
  },
  "userdoc": {
    "kind": "user",
    "methods": {},
    "version": 1
  }
}