{
  "contractName": "Farmer",
  "abi": [
    {
      "inputs": [
        {
          "internalType": "address",
          "name": "",
          "type": "address"
        }
      ],
      "name": "distributor_map",
      "outputs": [
        {
          "internalType": "uint256",
          "name": "distributor_id",
          "type": "uint256"
        },
        {
          "internalType": "string",
          "name": "distributor_name",
          "type": "string"
        },
        {
          "internalType": "address",
          "name": "distributor_add",
          "type": "address"
        },
        {
          "internalType": "uint256",
          "name": "distributor_rating",
          "type": "uint256"
        },
        {
          "internalType": "string",
          "name": "distributor_phone",
          "type": "string"
        },
        {
          "internalType": "string",
          "name": "distributor_email",
          "type": "string"
        }
      ],
      "stateMutability": "view",
      "type": "function",
      "constant": true
    },
    {
      "inputs": [
        {
          "internalType": "address",
          "name": "",
          "type": "address"
        }
      ],
      "name": "farmer_map",
      "outputs": [
        {
          "internalType": "uint256",
          "name": "farmer_id",
          "type": "uint256"
        },
        {
          "internalType": "string",
          "name": "farmer_name",
          "type": "string"
        },
        {
          "internalType": "address",
          "name": "farmer_add",
          "type": "address"
        },
        {
          "internalType": "address",
          "name": "distributor_add",
          "type": "address"
        },
        {
          "internalType": "uint256",
          "name": "rating",
          "type": "uint256"
        },
        {
          "internalType": "string",
          "name": "farmer_location",
          "type": "string"
        },
        {
          "internalType": "string",
          "name": "farmer_phone",
          "type": "string"
        },
        {
          "internalType": "string",
          "name": "farmer_email",
          "type": "string"
        }
      ],
      "stateMutability": "view",
      "type": "function",
      "constant": true
    },
    {
      "inputs": [
        {
          "internalType": "uint256",
          "name": "",
          "type": "uint256"
        }
      ],
      "name": "order_map",
      "outputs": [
        {
          "internalType": "uint256",
          "name": "order_id",
          "type": "uint256"
        },
        {
          "internalType": "uint256",
          "name": "order_price",
          "type": "uint256"
        },
        {
          "internalType": "bool",
          "name": "status",
          "type": "bool"
        },
        {
          "internalType": "address",
          "name": "farmer_address",
          "type": "address"
        },
        {
          "internalType": "address",
          "name": "customer_address",
          "type": "address"
        }
      ],
      "stateMutability": "view",
      "type": "function",
      "constant": true
    },
    {
      "inputs": [
        {
          "internalType": "uint256",
          "name": "",
          "type": "uint256"
        }
      ],
      "name": "product_map",
      "outputs": [
        {
          "internalType": "uint256",
          "name": "product_id",
          "type": "uint256"
        },
        {
          "internalType": "string",
          "name": "product_name",
          "type": "string"
        },
        {
          "internalType": "uint256",
          "name": "product_price",
          "type": "uint256"
        },
        {
          "internalType": "uint256",
          "name": "product_amount",
          "type": "uint256"
        },
        {
          "internalType": "string",
          "name": "product_category",
          "type": "string"
        },
        {
          "internalType": "bool",
          "name": "isAuthorised",
          "type": "bool"
        },
        {
          "internalType": "address",
          "name": "owner",
          "type": "address"
        }
      ],
      "stateMutability": "view",
      "type": "function",
      "constant": true
    },
    {
      "inputs": [
        {
          "internalType": "string",
          "name": "_name",
          "type": "string"
        },
        {
          "internalType": "string",
          "name": "_phone",
          "type": "string"
        },
        {
          "internalType": "string",
          "name": "_email",
          "type": "string"
        }
      ],
      "name": "setDetailsDistributor",
      "outputs": [],
      "stateMutability": "nonpayable",
      "type": "function"
    },
    {
      "inputs": [
        {
          "internalType": "string",
          "name": "_name",
          "type": "string"
        },
        {
          "internalType": "string",
          "name": "_location",
          "type": "string"
        },
        {
          "internalType": "string",
          "name": "_phone",
          "type": "string"
        },
        {
          "internalType": "string",
          "name": "_email",
          "type": "string"
        }
      ],
      "name": "setFarmerDetails",
      "outputs": [],
      "stateMutability": "nonpayable",
      "type": "function"
    },
    {
      "inputs": [
        {
          "internalType": "address payable",
          "name": "_distributorAddress",
          "type": "address"
        }
      ],
      "name": "setDistributor",
      "outputs": [],
      "stateMutability": "nonpayable",
      "type": "function"
    },
    {
      "inputs": [
        {
          "internalType": "string",
          "name": "_name",
          "type": "string"
        },
        {
          "internalType": "uint256",
          "name": "_price",
          "type": "uint256"
        },
        {
          "internalType": "string",
          "name": "_category",
          "type": "string"
        },
        {
          "internalType": "uint256",
          "name": "_amount",
          "type": "uint256"
        }
      ],
      "name": "createProduct",
      "outputs": [],
      "stateMutability": "nonpayable",
      "type": "function"
    },
    {
      "inputs": [
        {
          "internalType": "address",
          "name": "_address",
          "type": "address"
        }
      ],
      "name": "viewProductsFarmer",
      "outputs": [
        {
          "internalType": "uint256[]",
          "name": "",
          "type": "uint256[]"
        }
      ],
      "stateMutability": "view",
      "type": "function",
      "constant": true
    },
    {
      "inputs": [
        {
          "internalType": "uint256[]",
          "name": "_products",
          "type": "uint256[]"
        },
        {
          "internalType": "address",
          "name": "_customerAddress",
          "type": "address"
        },
        {
          "internalType": "address",
          "name": "_farmerAddress",
          "type": "address"
        }
      ],
      "name": "processOrder",
      "outputs": [],
      "stateMutability": "nonpayable",
      "type": "function"
    }
  ],
  "bytecode": "0x608060405234801561001057600080fd5b506000600560003373ffffffffffffffffffffffffffffffffffffffff1673ffffffffffffffffffffffffffffffffffffffff1681526020019081526020016000209050338160020160006101000a81548173ffffffffffffffffffffffffffffffffffffffff021916908373ffffffffffffffffffffffffffffffffffffffff16021790555050611bf8806100a76000396000f3fe608060405234801561001057600080fd5b506004361061009e5760003560e01c80638fdbffe7116100665780638fdbffe714610147578063a06fc3461461017e578063c013435f1461019a578063c72f7b73146101d0578063dec3a601146102005761009e565b806335e0e59e146100a357806338f1ef9e146100bf5780635fc412ec146100db57806375619ab5146100f757806388c9a00c14610113575b600080fd5b6100bd60048036038101906100b891906112bd565b610235565b005b6100d960048036038101906100d49190611394565b610382565b005b6100f560048036038101906100f09190611597565b610446565b005b610111600480360381019061010c9190611644565b61071f565b005b61012d60048036038101906101289190611671565b6107a9565b60405161013e9594939291906116d7565b60405180910390f35b610161600480360381019061015c919061172a565b61082c565b6040516101759897969594939291906117df565b60405180910390f35b61019860048036038101906101939190611879565b610ad4565b005b6101b460048036038101906101af9190611671565b610c14565b6040516101c79796959493929190611918565b60405180910390f35b6101ea60048036038101906101e5919061172a565b610d93565b6040516101f79190611a53565b60405180910390f35b61021a6004803603810190610215919061172a565b610e2d565b60405161022c96959493929190611a75565b60405180910390f35b6000600760003373ffffffffffffffffffffffffffffffffffffffff1673ffffffffffffffffffffffffffffffffffffffff1681526020019081526020016000209050338160020160006101000a81548173ffffffffffffffffffffffffffffffffffffffff021916908373ffffffffffffffffffffffffffffffffffffffff16021790555060008160000154036102eb57600660008154809291906102da90611b1a565b919050555060065481600001819055505b81816007019080519060200190610303929190611021565b508281600601908051906020019061031c929190611021565b5084816001019080519060200190610335929190611021565b508381600501908051906020019061034e929190611021565b5080600801600090806001815401808255809150506001900390600052602060002001600090919091909150555050505050565b6000600560003373ffffffffffffffffffffffffffffffffffffffff1673ffffffffffffffffffffffffffffffffffffffff168152602001908152602001600020905060008160000154036103f557600460008154809291906103e490611b1a565b919050555060045481600001819055505b8381600101908051906020019061040d929190611021565b5082816004019080519060200190610426929190611021565b508181600501908051906020019061043f929190611021565b5050505050565b6002600081548092919061045990611b1a565b91905055506000600760008373ffffffffffffffffffffffffffffffffffffffff1673ffffffffffffffffffffffffffffffffffffffff1681526020019081526020016000209050600060036000600254815260200190815260200160002090506002548160000181905550838160050160006101000a81548173ffffffffffffffffffffffffffffffffffffffff021916908373ffffffffffffffffffffffffffffffffffffffff160217905550828160040160006101000a81548173ffffffffffffffffffffffffffffffffffffffff021916908373ffffffffffffffffffffffffffffffffffffffff160217905550848160030190805190602001906105639291906110a7565b506000600560008460030160009054906101000a900473ffffffffffffffffffffffffffffffffffffffff1673ffffffffffffffffffffffffffffffffffffffff1673ffffffffffffffffffffffffffffffffffffffff1681526020019081526020016000209050818160060160018160018154018082558091505003906000526020600020906006020160008201548160000155600182015481600101556002820160009054906101000a900460ff168160020160006101000a81548160ff02191690831515021790555060038201816003019080546106459291906110f4565b506004820160009054906101000a900473ffffffffffffffffffffffffffffffffffffffff168160040160006101000a81548173ffffffffffffffffffffffffffffffffffffffff021916908373ffffffffffffffffffffffffffffffffffffffff1602179055506005820160009054906101000a900473ffffffffffffffffffffffffffffffffffffffff168160050160006101000a81548173ffffffffffffffffffffffffffffffffffffffff021916908373ffffffffffffffffffffffffffffffffffffffff160217905550905050505050505050565b6000600760003373ffffffffffffffffffffffffffffffffffffffff1673ffffffffffffffffffffffffffffffffffffffff1681526020019081526020016000209050818160030160006101000a81548173ffffffffffffffffffffffffffffffffffffffff021916908373ffffffffffffffffffffffffffffffffffffffff1602179055505050565b60036020528060005260406000206000915090508060000154908060010154908060020160009054906101000a900460ff16908060040160009054906101000a900473ffffffffffffffffffffffffffffffffffffffff16908060050160009054906101000a900473ffffffffffffffffffffffffffffffffffffffff16905085565b600760205280600052604060002060009150905080600001549080600101805461085590611b91565b80601f016020809104026020016040519081016040528092919081815260200182805461088190611b91565b80156108ce5780601f106108a3576101008083540402835291602001916108ce565b820191906000526020600020905b8154815290600101906020018083116108b157829003601f168201915b5050505050908060020160009054906101000a900473ffffffffffffffffffffffffffffffffffffffff16908060030160009054906101000a900473ffffffffffffffffffffffffffffffffffffffff169080600401549080600501805461093590611b91565b80601f016020809104026020016040519081016040528092919081815260200182805461096190611b91565b80156109ae5780601f10610983576101008083540402835291602001916109ae565b820191906000526020600020905b81548152906001019060200180831161099157829003601f168201915b5050505050908060060180546109c390611b91565b80601f01602080910402602001604051908101604052809291908181526020018280546109ef90611b91565b8015610a3c5780601f10610a1157610100808354040283529160200191610a3c565b820191906000526020600020905b815481529060010190602001808311610a1f57829003601f168201915b505050505090806007018054610a5190611b91565b80601f0160208091040260200160405190810160405280929190818152602001828054610a7d90611b91565b8015610aca5780601f10610a9f57610100808354040283529160200191610aca565b820191906000526020600020905b815481529060010190602001808311610aad57829003601f168201915b5050505050905088565b6000600160008054815260200190815260200160002090506000816000015403610b1b57600080815480929190610b0a90611b1a565b919050555060005481600001819055505b84816001019080519060200190610b33929190611021565b50818160030181905550838160020181905550338160050160016101000a81548173ffffffffffffffffffffffffffffffffffffffff021916908373ffffffffffffffffffffffffffffffffffffffff16021790555082816004019080519060200190610ba1929190611021565b50600760003373ffffffffffffffffffffffffffffffffffffffff1673ffffffffffffffffffffffffffffffffffffffff16815260200190815260200160002060080160005490806001815401808255809150506001900390600052602060002001600090919091909150555050505050565b6001602052806000526040600020600091509050806000015490806001018054610c3d90611b91565b80601f0160208091040260200160405190810160405280929190818152602001828054610c6990611b91565b8015610cb65780601f10610c8b57610100808354040283529160200191610cb6565b820191906000526020600020905b815481529060010190602001808311610c9957829003601f168201915b505050505090806002015490806003015490806004018054610cd790611b91565b80601f0160208091040260200160405190810160405280929190818152602001828054610d0390611b91565b8015610d505780601f10610d2557610100808354040283529160200191610d50565b820191906000526020600020905b815481529060010190602001808311610d3357829003601f168201915b5050505050908060050160009054906101000a900460ff16908060050160019054906101000a900473ffffffffffffffffffffffffffffffffffffffff16905087565b6060600760008373ffffffffffffffffffffffffffffffffffffffff1673ffffffffffffffffffffffffffffffffffffffff168152602001908152602001600020600801805480602002602001604051908101604052809291908181526020018280548015610e2157602002820191906000526020600020905b815481526020019060010190808311610e0d575b50505050509050919050565b6005602052806000526040600020600091509050806000015490806001018054610e5690611b91565b80601f0160208091040260200160405190810160405280929190818152602001828054610e8290611b91565b8015610ecf5780601f10610ea457610100808354040283529160200191610ecf565b820191906000526020600020905b815481529060010190602001808311610eb257829003601f168201915b5050505050908060020160009054906101000a900473ffffffffffffffffffffffffffffffffffffffff1690806003015490806004018054610f1090611b91565b80601f0160208091040260200160405190810160405280929190818152602001828054610f3c90611b91565b8015610f895780601f10610f5e57610100808354040283529160200191610f89565b820191906000526020600020905b815481529060010190602001808311610f6c57829003601f168201915b505050505090806005018054610f9e90611b91565b80601f0160208091040260200160405190810160405280929190818152602001828054610fca90611b91565b80156110175780601f10610fec57610100808354040283529160200191611017565b820191906000526020600020905b815481529060010190602001808311610ffa57829003601f168201915b5050505050905086565b82805461102d90611b91565b90600052602060002090601f01602090048101928261104f5760008555611096565b82601f1061106857805160ff1916838001178555611096565b82800160010185558215611096579182015b8281111561109557825182559160200191906001019061107a565b5b5090506110a39190611146565b5090565b8280548282559060005260206000209081019282156110e3579160200282015b828111156110e25782518255916020019190600101906110c7565b5b5090506110f09190611146565b5090565b8280548282559060005260206000209081019282156111355760005260206000209182015b82811115611134578254825591600101919060010190611119565b5b5090506111429190611146565b5090565b5b8082111561115f576000816000905550600101611147565b5090565b6000604051905090565b600080fd5b600080fd5b600080fd5b600080fd5b6000601f19601f8301169050919050565b7f4e487b7100000000000000000000000000000000000000000000000000000000600052604160045260246000fd5b6111ca82611181565b810181811067ffffffffffffffff821117156111e9576111e8611192565b5b80604052505050565b60006111fc611163565b905061120882826111c1565b919050565b600067ffffffffffffffff82111561122857611227611192565b5b61123182611181565b9050602081019050919050565b82818337600083830152505050565b600061126061125b8461120d565b6111f2565b90508281526020810184848401111561127c5761127b61117c565b5b61128784828561123e565b509392505050565b600082601f8301126112a4576112a3611177565b5b81356112b484826020860161124d565b91505092915050565b600080600080608085870312156112d7576112d661116d565b5b600085013567ffffffffffffffff8111156112f5576112f4611172565b5b6113018782880161128f565b945050602085013567ffffffffffffffff81111561132257611321611172565b5b61132e8782880161128f565b935050604085013567ffffffffffffffff81111561134f5761134e611172565b5b61135b8782880161128f565b925050606085013567ffffffffffffffff81111561137c5761137b611172565b5b6113888782880161128f565b91505092959194509250565b6000806000606084860312156113ad576113ac61116d565b5b600084013567ffffffffffffffff8111156113cb576113ca611172565b5b6113d78682870161128f565b935050602084013567ffffffffffffffff8111156113f8576113f7611172565b5b6114048682870161128f565b925050604084013567ffffffffffffffff81111561142557611424611172565b5b6114318682870161128f565b9150509250925092565b600067ffffffffffffffff82111561145657611455611192565b5b602082029050602081019050919050565b600080fd5b6000819050919050565b61147f8161146c565b811461148a57600080fd5b50565b60008135905061149c81611476565b92915050565b60006114b56114b08461143b565b6111f2565b905080838252602082019050602084028301858111156114d8576114d7611467565b5b835b8181101561150157806114ed888261148d565b8452602084019350506020810190506114da565b5050509392505050565b600082601f8301126115205761151f611177565b5b81356115308482602086016114a2565b91505092915050565b600073ffffffffffffffffffffffffffffffffffffffff82169050919050565b600061156482611539565b9050919050565b61157481611559565b811461157f57600080fd5b50565b6000813590506115918161156b565b92915050565b6000806000606084860312156115b0576115af61116d565b5b600084013567ffffffffffffffff8111156115ce576115cd611172565b5b6115da8682870161150b565b93505060206115eb86828701611582565b92505060406115fc86828701611582565b9150509250925092565b600061161182611539565b9050919050565b61162181611606565b811461162c57600080fd5b50565b60008135905061163e81611618565b92915050565b60006020828403121561165a5761165961116d565b5b60006116688482850161162f565b91505092915050565b6000602082840312156116875761168661116d565b5b60006116958482850161148d565b91505092915050565b6116a78161146c565b82525050565b60008115159050919050565b6116c2816116ad565b82525050565b6116d181611559565b82525050565b600060a0820190506116ec600083018861169e565b6116f9602083018761169e565b61170660408301866116b9565b61171360608301856116c8565b61172060808301846116c8565b9695505050505050565b6000602082840312156117405761173f61116d565b5b600061174e84828501611582565b91505092915050565b600081519050919050565b600082825260208201905092915050565b60005b83811015611791578082015181840152602081019050611776565b838111156117a0576000848401525b50505050565b60006117b182611757565b6117bb8185611762565b93506117cb818560208601611773565b6117d481611181565b840191505092915050565b6000610100820190506117f5600083018b61169e565b8181036020830152611807818a6117a6565b905061181660408301896116c8565b61182360608301886116c8565b611830608083018761169e565b81810360a083015261184281866117a6565b905081810360c083015261185681856117a6565b905081810360e083015261186a81846117a6565b90509998505050505050505050565b600080600080608085870312156118935761189261116d565b5b600085013567ffffffffffffffff8111156118b1576118b0611172565b5b6118bd8782880161128f565b94505060206118ce8782880161148d565b935050604085013567ffffffffffffffff8111156118ef576118ee611172565b5b6118fb8782880161128f565b925050606061190c8782880161148d565b91505092959194509250565b600060e08201905061192d600083018a61169e565b818103602083015261193f81896117a6565b905061194e604083018861169e565b61195b606083018761169e565b818103608083015261196d81866117a6565b905061197c60a08301856116b9565b61198960c08301846116c8565b98975050505050505050565b600081519050919050565b600082825260208201905092915050565b6000819050602082019050919050565b6119ca8161146c565b82525050565b60006119dc83836119c1565b60208301905092915050565b6000602082019050919050565b6000611a0082611995565b611a0a81856119a0565b9350611a15836119b1565b8060005b83811015611a46578151611a2d88826119d0565b9750611a38836119e8565b925050600181019050611a19565b5085935050505092915050565b60006020820190508181036000830152611a6d81846119f5565b905092915050565b600060c082019050611a8a600083018961169e565b8181036020830152611a9c81886117a6565b9050611aab60408301876116c8565b611ab8606083018661169e565b8181036080830152611aca81856117a6565b905081810360a0830152611ade81846117a6565b9050979650505050505050565b7f4e487b7100000000000000000000000000000000000000000000000000000000600052601160045260246000fd5b6000611b258261146c565b91507fffffffffffffffffffffffffffffffffffffffffffffffffffffffffffffffff8203611b5757611b56611aeb565b5b600182019050919050565b7f4e487b7100000000000000000000000000000000000000000000000000000000600052602260045260246000fd5b60006002820490506001821680611ba957607f821691505b602082108103611bbc57611bbb611b62565b5b5091905056fea26469706673582212201aa284c758a23255d85df0b57bf3573053bb6e3e758c562bfb8d317e852c180664736f6c634300080d0033",
  "immutableReferences": {},
  "source": "// SPDX-License-Identifier: MIT\r\npragma solidity >=0.4.22 <0.9.0;\r\nimport \"./product.sol\";\r\nimport \"./order.sol\";\r\nimport \"./customer.sol\";\r\nimport \"./distributor.sol\";\r\ncontract Farmer is Product,Distributor{\r\n    uint farmer_count;\r\n\r\n    //event farmerDetails(uint[] memory _products, address _customerAddress,address _farmerAddress);\r\n    struct farmer{\r\n        uint farmer_id;\r\n        string farmer_name;\r\n        address farmer_add;\r\n        address distributor_add;\r\n        uint rating;\r\n        string farmer_location;\r\n        string farmer_phone;\r\n        string farmer_email;\r\n        uint256[] farmer_product;\r\n    }\r\n    //address[] farmerAddress;\r\n    //mapping for all products of farmer using it's address\r\n    //mapping(address=>product[]) farmers_products_map;\r\n    mapping(address=>farmer) public farmer_map;\r\n    //event farmerDetails()\r\n    // constructor(){\r\n    //     farmer storage f= farmer_map[msg.sender];\r\n    //     f.farmer_add=msg.sender;\r\n    // }\r\n\r\n    //OK\r\n    function setFarmerDetails(string memory _name,string memory _location,string memory _phone,string memory _email) public{\r\n        farmer storage f= farmer_map[msg.sender];\r\n        f.farmer_add=msg.sender;\r\n        if(f.farmer_id==0)\r\n        {\r\n            farmer_count++;\r\n            f.farmer_id=farmer_count;\r\n        }\r\n        f.farmer_email=_email;\r\n        f.farmer_phone=_phone;\r\n        f.farmer_name=_name;\r\n        f.farmer_location=_location;\r\n        f.farmer_product.push(0);\r\n    }\r\n    //OK\r\n    function setDistributor(address payable _distributorAddress) public\r\n    {\r\n        farmer storage f= farmer_map[msg.sender];\r\n        f.distributor_add=_distributorAddress;\r\n    }\r\n        // function placeOrder(address _to) public\r\n        //OK\r\n    function createProduct(string memory _name,uint _price,string memory _category,uint _amount) public{\r\n           product storage p=product_map[pid];\r\n            if(p.product_id==0)\r\n            {\r\n                pid++;\r\n                p.product_id=pid;\r\n            }\r\n            p.product_name=_name;\r\n            p.product_amount=_amount;\r\n            p.product_price=_price;\r\n            p.owner=msg.sender;\r\n            p.product_category=_category;\r\n            farmer_map[msg.sender].farmer_product.push(pid);\r\n    }\r\n    //OK\r\n    function viewProductsFarmer(address _address) public view returns (uint256[] memory)\r\n    {\r\n       // emit farmerDetails(farmer_map[msg.sender].farmer_product);\r\n        return farmer_map[_address].farmer_product;\r\n    }\r\n\r\n    function processOrder(uint[] memory _products, address _customerAddress,address _farmerAddress) public{\r\n            order_count++;\r\n            farmer storage f=farmer_map[_farmerAddress];\r\n            order storage o = order_map[order_count];\r\n            o.order_id=order_count;\r\n            //o.order_price = order_price_map[_customerAddress]; \r\n            o.customer_address=_customerAddress;\r\n            o.farmer_address=_farmerAddress;\r\n            o.product_items=_products;\r\n            distributor storage d=distributor_map[f.distributor_add];\r\n            d.orders.push()=o;\r\n    }\r\n}",
  "sourcePath": "C:\\Users\\shubh\\OneDrive\\Desktop\\ASCM\\contracts\\farmer.sol",
  "compiler": {
    "name": "solc",
    "version": "0.8.13+commit.abaa5c0e.Emscripten.clang"
  },
  "schemaVersion": "3.4.8",
  "updatedAt": "2022-11-23T08:34:32.064Z",
  "networkType": "ethereum",
  "devdoc": {
    "kind": "dev",
    "methods": {},
    "version": 1
  },
  "userdoc": {
    "kind": "user",
    "methods": {},
    "version": 1
  }
}