{
  "contractName": "Order",
  "abi": [
    {
      "inputs": [
        {
          "internalType": "uint256",
          "name": "",
          "type": "uint256"
        }
      ],
      "name": "order_map",
      "outputs": [
        {
          "internalType": "uint256",
          "name": "order_id",
          "type": "uint256"
        },
        {
          "internalType": "uint256",
          "name": "order_price",
          "type": "uint256"
        },
        {
          "internalType": "bool",
          "name": "status",
          "type": "bool"
        },
        {
          "internalType": "address",
          "name": "farmer_address",
          "type": "address"
        },
        {
          "internalType": "address",
          "name": "customer_address",
          "type": "address"
        }
      ],
      "stateMutability": "view",
      "type": "function",
      "constant": true
    }
  ],
  "bytecode": "0x608060405234801561001057600080fd5b50610243806100206000396000f3fe608060405234801561001057600080fd5b506004361061002b5760003560e01c806388c9a00c14610030575b600080fd5b61004a60048036038101906100459190610122565b610064565b60405161005b9594939291906101ba565b60405180910390f35b60016020528060005260406000206000915090508060000154908060010154908060020160009054906101000a900460ff16908060040160009054906101000a900473ffffffffffffffffffffffffffffffffffffffff16908060050160009054906101000a900473ffffffffffffffffffffffffffffffffffffffff16905085565b600080fd5b6000819050919050565b6100ff816100ec565b811461010a57600080fd5b50565b60008135905061011c816100f6565b92915050565b600060208284031215610138576101376100e7565b5b60006101468482850161010d565b91505092915050565b610158816100ec565b82525050565b60008115159050919050565b6101738161015e565b82525050565b600073ffffffffffffffffffffffffffffffffffffffff82169050919050565b60006101a482610179565b9050919050565b6101b481610199565b82525050565b600060a0820190506101cf600083018861014f565b6101dc602083018761014f565b6101e9604083018661016a565b6101f660608301856101ab565b61020360808301846101ab565b969550505050505056fea2646970667358221220e2570d6c8c5f4e8edf2413346688af9c5bcecb55e074f6b8f5096727316c8ac464736f6c634300080d0033",
  "immutableReferences": {},
  "source": "// SPDX-License-Identifier: MIT\r\npragma solidity >=0.4.22 <0.9.0;\r\ncontract Order{\r\n    uint order_count;\r\n\r\n    struct order{\r\n        uint order_id;\r\n        uint order_price;\r\n        bool status;\r\n        uint[] product_items;\r\n        address farmer_address;\r\n        address customer_address;\r\n    }\r\n\r\n    mapping(uint=>order) public order_map;\r\n}",
  "sourcePath": "C:\\Users\\shubh\\OneDrive\\Desktop\\ASCM\\contracts\\order.sol",
  "compiler": {
    "name": "solc",
    "version": "0.8.13+commit.abaa5c0e.Emscripten.clang"
  },
  "schemaVersion": "3.4.8",
  "updatedAt": "2022-11-23T08:34:30.549Z",
  "networkType": "ethereum",
  "devdoc": {
    "kind": "dev",
    "methods": {},
    "version": 1
  },
  "userdoc": {
    "kind": "user",
    "methods": {},
    "version": 1
  }
}