{
  "contractName": "Payment",
  "abi": [
    {
      "inputs": [],
      "name": "buyer",
      "outputs": [
        {
          "internalType": "address payable",
          "name": "",
          "type": "address"
        }
      ],
      "stateMutability": "view",
      "type": "function",
      "constant": true
    },
    {
      "inputs": [],
      "name": "deposit",
      "outputs": [
        {
          "internalType": "uint256",
          "name": "",
          "type": "uint256"
        }
      ],
      "stateMutability": "view",
      "type": "function",
      "constant": true
    },
    {
      "inputs": [],
      "name": "receivedTime",
      "outputs": [
        {
          "internalType": "uint256",
          "name": "",
          "type": "uint256"
        }
      ],
      "stateMutability": "view",
      "type": "function",
      "constant": true
    },
    {
      "inputs": [],
      "name": "startTime",
      "outputs": [
        {
          "internalType": "uint256",
          "name": "",
          "type": "uint256"
        }
      ],
      "stateMutability": "view",
      "type": "function",
      "constant": true
    },
    {
      "inputs": [],
      "name": "status",
      "outputs": [
        {
          "internalType": "string",
          "name": "",
          "type": "string"
        }
      ],
      "stateMutability": "view",
      "type": "function",
      "constant": true
    },
    {
      "inputs": [],
      "name": "timeToExpire",
      "outputs": [
        {
          "internalType": "uint256",
          "name": "",
          "type": "uint256"
        }
      ],
      "stateMutability": "view",
      "type": "function",
      "constant": true
    },
    {
      "inputs": [],
      "name": "timeToReturn",
      "outputs": [
        {
          "internalType": "uint256",
          "name": "",
          "type": "uint256"
        }
      ],
      "stateMutability": "view",
      "type": "function",
      "constant": true
    },
    {
      "inputs": [
        {
          "internalType": "address payable",
          "name": "_seller",
          "type": "address"
        },
        {
          "internalType": "uint256",
          "name": "_timeToExpire",
          "type": "uint256"
        },
        {
          "internalType": "uint256",
          "name": "_timeToReturn",
          "type": "uint256"
        }
      ],
      "name": "initiatePaymentContract",
      "outputs": [],
      "stateMutability": "payable",
      "type": "function",
      "payable": true
    },
    {
      "inputs": [
        {
          "internalType": "string",
          "name": "_status",
          "type": "string"
        }
      ],
      "name": "itemShipped",
      "outputs": [],
      "stateMutability": "nonpayable",
      "type": "function"
    },
    {
      "inputs": [
        {
          "internalType": "string",
          "name": "_status",
          "type": "string"
        }
      ],
      "name": "itemReceived",
      "outputs": [],
      "stateMutability": "nonpayable",
      "type": "function"
    },
    {
      "inputs": [],
      "name": "releaseBalanceToSeller",
      "outputs": [],
      "stateMutability": "nonpayable",
      "type": "function"
    },
    {
      "inputs": [
        {
          "internalType": "string",
          "name": "_status",
          "type": "string"
        }
      ],
      "name": "returnItemToSeller",
      "outputs": [],
      "stateMutability": "nonpayable",
      "type": "function"
    },
    {
      "inputs": [],
      "name": "releaseBalanceToBuyer",
      "outputs": [],
      "stateMutability": "nonpayable",
      "type": "function"
    },
    {
      "inputs": [],
      "name": "withdraw",
      "outputs": [],
      "stateMutability": "nonpayable",
      "type": "function"
    },
    {
      "inputs": [],
      "name": "cancel",
      "outputs": [],
      "stateMutability": "nonpayable",
      "type": "function"
    }
  ],
  "bytecode": "0x608060405234801561001057600080fd5b50611031806100206000396000f3fe6080604052600436106100e85760003560e01c80638bf023571161008a578063dbbd8c0511610059578063dbbd8c0514610286578063e3415955146102a2578063ea8a1af0146102cb578063eb9115be146102e2576100e8565b80638bf02357146102025780639b83a7611461022d578063abd151de14610244578063d0e30db01461025b576100e8565b806357d60968116100c657806357d609681461015a5780637150d8ae1461018357806378e97925146101ae5780638646b7fa146101d9576100e8565b80630cf6130c146100ed578063200d2ed2146101185780633ccfd60b14610143575b600080fd5b3480156100f957600080fd5b5061010261030d565b60405161010f9190610a49565b60405180910390f35b34801561012457600080fd5b5061012d610313565b60405161013a9190610afd565b60405180910390f35b34801561014f57600080fd5b506101586103a1565b005b34801561016657600080fd5b50610181600480360381019061017c9190610c68565b610483565b005b34801561018f57600080fd5b50610198610546565b6040516101a59190610cf2565b60405180910390f35b3480156101ba57600080fd5b506101c361056a565b6040516101d09190610a49565b60405180910390f35b3480156101e557600080fd5b5061020060048036038101906101fb9190610c68565b610570565b005b34801561020e57600080fd5b506102176105e4565b6040516102249190610a49565b60405180910390f35b34801561023957600080fd5b506102426105ea565b005b34801561025057600080fd5b5061025961067d565b005b34801561026757600080fd5b50610270610710565b60405161027d9190610a49565b60405180910390f35b6102a0600480360381019061029b9190610d65565b610716565b005b3480156102ae57600080fd5b506102c960048036038101906102c49190610c68565b610804565b005b3480156102d757600080fd5b506102e06108f4565b005b3480156102ee57600080fd5b506102f7610987565b6040516103049190610a49565b60405180910390f35b60055481565b6007805461032090610de7565b80601f016020809104026020016040519081016040528092919081815260200182805461034c90610de7565b80156103995780601f1061036e57610100808354040283529160200191610399565b820191906000526020600020905b81548152906001019060200180831161037c57829003601f168201915b505050505081565b60008054906101000a900473ffffffffffffffffffffffffffffffffffffffff1673ffffffffffffffffffffffffffffffffffffffff163373ffffffffffffffffffffffffffffffffffffffff16146103f957600080fd5b6002546004546104099190610e47565b421161044a576040517f08c379a000000000000000000000000000000000000000000000000000000000815260040161044190610f0f565b60405180910390fd5b60008054906101000a900473ffffffffffffffffffffffffffffffffffffffff1673ffffffffffffffffffffffffffffffffffffffff16ff5b60008054906101000a900473ffffffffffffffffffffffffffffffffffffffff1673ffffffffffffffffffffffffffffffffffffffff163373ffffffffffffffffffffffffffffffffffffffff16146104db57600080fd5b6003546005546104eb9190610e47565b421061052c576040517f08c379a000000000000000000000000000000000000000000000000000000000815260040161052390610f7b565b60405180910390fd5b806007908051906020019061054292919061098d565b5050565b60008054906101000a900473ffffffffffffffffffffffffffffffffffffffff1681565b60045481565b600160009054906101000a900473ffffffffffffffffffffffffffffffffffffffff1673ffffffffffffffffffffffffffffffffffffffff163373ffffffffffffffffffffffffffffffffffffffff16146105ca57600080fd5b80600790805190602001906105e092919061098d565b5050565b60025481565b600160009054906101000a900473ffffffffffffffffffffffffffffffffffffffff1673ffffffffffffffffffffffffffffffffffffffff163373ffffffffffffffffffffffffffffffffffffffff161461064457600080fd5b60008054906101000a900473ffffffffffffffffffffffffffffffffffffffff1673ffffffffffffffffffffffffffffffffffffffff16ff5b60008054906101000a900473ffffffffffffffffffffffffffffffffffffffff1673ffffffffffffffffffffffffffffffffffffffff163373ffffffffffffffffffffffffffffffffffffffff16146106d557600080fd5b600160009054906101000a900473ffffffffffffffffffffffffffffffffffffffff1673ffffffffffffffffffffffffffffffffffffffff16ff5b60065481565b336000806101000a81548173ffffffffffffffffffffffffffffffffffffffff021916908373ffffffffffffffffffffffffffffffffffffffff16021790555082600160006101000a81548173ffffffffffffffffffffffffffffffffffffffff021916908373ffffffffffffffffffffffffffffffffffffffff1602179055508160028190555080600381905550426004819055506040518060400160405280601181526020017f5061796d656e7420496e69746961746564000000000000000000000000000000815250600790805190602001906107f792919061098d565b5034600681905550505050565b60008054906101000a900473ffffffffffffffffffffffffffffffffffffffff1673ffffffffffffffffffffffffffffffffffffffff163373ffffffffffffffffffffffffffffffffffffffff161461085c57600080fd5b806007908051906020019061087292919061098d565b5042600581905550600160009054906101000a900473ffffffffffffffffffffffffffffffffffffffff1673ffffffffffffffffffffffffffffffffffffffff166108fc60056006546108c59190610fca565b9081150290604051600060405180830381858888f193505050501580156108f0573d6000803e3d6000fd5b5050565b600160009054906101000a900473ffffffffffffffffffffffffffffffffffffffff1673ffffffffffffffffffffffffffffffffffffffff163373ffffffffffffffffffffffffffffffffffffffff161461094e57600080fd5b60008054906101000a900473ffffffffffffffffffffffffffffffffffffffff1673ffffffffffffffffffffffffffffffffffffffff16ff5b60035481565b82805461099990610de7565b90600052602060002090601f0160209004810192826109bb5760008555610a02565b82601f106109d457805160ff1916838001178555610a02565b82800160010185558215610a02579182015b82811115610a015782518255916020019190600101906109e6565b5b509050610a0f9190610a13565b5090565b5b80821115610a2c576000816000905550600101610a14565b5090565b6000819050919050565b610a4381610a30565b82525050565b6000602082019050610a5e6000830184610a3a565b92915050565b600081519050919050565b600082825260208201905092915050565b60005b83811015610a9e578082015181840152602081019050610a83565b83811115610aad576000848401525b50505050565b6000601f19601f8301169050919050565b6000610acf82610a64565b610ad98185610a6f565b9350610ae9818560208601610a80565b610af281610ab3565b840191505092915050565b60006020820190508181036000830152610b178184610ac4565b905092915050565b6000604051905090565b600080fd5b600080fd5b600080fd5b600080fd5b7f4e487b7100000000000000000000000000000000000000000000000000000000600052604160045260246000fd5b610b7582610ab3565b810181811067ffffffffffffffff82111715610b9457610b93610b3d565b5b80604052505050565b6000610ba7610b1f565b9050610bb38282610b6c565b919050565b600067ffffffffffffffff821115610bd357610bd2610b3d565b5b610bdc82610ab3565b9050602081019050919050565b82818337600083830152505050565b6000610c0b610c0684610bb8565b610b9d565b905082815260208101848484011115610c2757610c26610b38565b5b610c32848285610be9565b509392505050565b600082601f830112610c4f57610c4e610b33565b5b8135610c5f848260208601610bf8565b91505092915050565b600060208284031215610c7e57610c7d610b29565b5b600082013567ffffffffffffffff811115610c9c57610c9b610b2e565b5b610ca884828501610c3a565b91505092915050565b600073ffffffffffffffffffffffffffffffffffffffff82169050919050565b6000610cdc82610cb1565b9050919050565b610cec81610cd1565b82525050565b6000602082019050610d076000830184610ce3565b92915050565b610d1681610cd1565b8114610d2157600080fd5b50565b600081359050610d3381610d0d565b92915050565b610d4281610a30565b8114610d4d57600080fd5b50565b600081359050610d5f81610d39565b92915050565b600080600060608486031215610d7e57610d7d610b29565b5b6000610d8c86828701610d24565b9350506020610d9d86828701610d50565b9250506040610dae86828701610d50565b9150509250925092565b7f4e487b7100000000000000000000000000000000000000000000000000000000600052602260045260246000fd5b60006002820490506001821680610dff57607f821691505b602082108103610e1257610e11610db8565b5b50919050565b7f4e487b7100000000000000000000000000000000000000000000000000000000600052601160045260246000fd5b6000610e5282610a30565b9150610e5d83610a30565b9250827fffffffffffffffffffffffffffffffffffffffffffffffffffffffffffffffff03821115610e9257610e91610e18565b5b828201905092915050565b7f43616e6e6f74207769746864726177206265666f72652064656c69766572792060008201527f74696d6500000000000000000000000000000000000000000000000000000000602082015250565b6000610ef9602483610a6f565b9150610f0482610e9d565b604082019050919050565b60006020820190508181036000830152610f2881610eec565b9050919050565b7f52657475726e20506572696f6420457870697265000000000000000000000000600082015250565b6000610f65601483610a6f565b9150610f7082610f2f565b602082019050919050565b60006020820190508181036000830152610f9481610f58565b9050919050565b7f4e487b7100000000000000000000000000000000000000000000000000000000600052601260045260246000fd5b6000610fd582610a30565b9150610fe083610a30565b925082610ff057610fef610f9b565b5b82820490509291505056fea2646970667358221220bb624b21d61b438590f0e8f7cf97d4de6c25db09e7b00557df9df912b0c0395f64736f6c634300080d0033",
  "immutableReferences": {},
  "source": "// SPDX-License-Identifier: GPL-3.0\r\npragma solidity ^0.8.13;\r\n\r\ncontract Payment{\r\n    address payable public buyer;\r\n    address payable seller;\r\n    uint public timeToExpire;\r\n    uint public timeToReturn;\r\n    uint public startTime;\r\n    uint public receivedTime;\r\n    uint public deposit;\r\n    string public status;\r\n\r\n    modifier onlySeller {\r\n        require(msg.sender==seller);\r\n        _;\r\n    }\r\n\r\n    modifier onlyBuyer {\r\n        require(msg.sender==buyer);\r\n        _;\r\n    }\r\n\r\n    function initiatePaymentContract(address payable _seller,uint _timeToExpire,uint _timeToReturn) public payable\r\n    {\r\n        buyer=payable(msg.sender);\r\n        seller=_seller;\r\n        timeToExpire=_timeToExpire;\r\n        timeToReturn=_timeToReturn;\r\n        startTime=block.timestamp;\r\n        status=\"Payment Initiated\";\r\n        deposit=msg.value;\r\n    }\r\n\r\n    function itemShipped(string memory _status) onlySeller public{\r\n        status=_status;\r\n    }\r\n\r\n    function itemReceived(string memory _status) onlyBuyer public\r\n    {\r\n        status=_status;\r\n        receivedTime=block.timestamp;\r\n        seller.transfer(deposit/5);\r\n    }\r\n\r\n    function releaseBalanceToSeller() onlyBuyer public{\r\n        selfdestruct(seller);\r\n    }\r\n\r\n    function returnItemToSeller(string memory _status) onlyBuyer public{\r\n        require(block.timestamp<receivedTime+timeToReturn,\"Return Period Expire\");\r\n        status=_status;\r\n    }\r\n\r\n    function releaseBalanceToBuyer() onlySeller public{\r\n        selfdestruct(buyer);\r\n    }\r\n\r\n    function withdraw() onlyBuyer public{\r\n        require(block.timestamp>startTime+timeToExpire,\"Cannot withdraw before delivery time\");\r\n        selfdestruct(buyer);\r\n    }\r\n\r\n    function cancel() onlySeller public{\r\n        selfdestruct(buyer);\r\n    }\r\n\r\n\r\n}",
  "sourcePath": "C:\\Users\\shubh\\OneDrive\\Desktop\\Agriculture-Supply-Chain-Management\\ASCM\\contracts\\payment.sol",
  "compiler": {
    "name": "solc",
    "version": "0.8.13+commit.abaa5c0e.Emscripten.clang"
  },
  "schemaVersion": "3.4.7",
  "updatedAt": "2022-04-24T13:56:07.609Z",
  "networkType": "ethereum",
  "devdoc": {
    "kind": "dev",
    "methods": {},
    "version": 1
  },
  "userdoc": {
    "kind": "user",
    "methods": {},
    "version": 1
  }
}