{
  "contractName": "Product",
  "abi": [
    {
      "inputs": [
        {
          "internalType": "uint256",
          "name": "",
          "type": "uint256"
        }
      ],
      "name": "product_map",
      "outputs": [
        {
          "internalType": "uint256",
          "name": "product_id",
          "type": "uint256"
        },
        {
          "internalType": "string",
          "name": "product_name",
          "type": "string"
        },
        {
          "internalType": "uint256",
          "name": "product_price",
          "type": "uint256"
        },
        {
          "internalType": "uint256",
          "name": "product_amount",
          "type": "uint256"
        },
        {
          "internalType": "string",
          "name": "product_category",
          "type": "string"
        },
        {
          "internalType": "bool",
          "name": "isAuthorised",
          "type": "bool"
        },
        {
          "internalType": "address",
          "name": "owner",
          "type": "address"
        }
      ],
      "stateMutability": "view",
      "type": "function",
      "constant": true
    }
  ],
  "bytecode": "0x608060405234801561001057600080fd5b50610464806100206000396000f3fe608060405234801561001057600080fd5b506004361061002b5760003560e01c8063c013435f14610030575b600080fd5b61004a60048036038101906100459190610220565b610066565b60405161005d9796959493929190610351565b60405180910390f35b600160205280600052604060002060009150905080600001549080600101805461008f906103fd565b80601f01602080910402602001604051908101604052809291908181526020018280546100bb906103fd565b80156101085780601f106100dd57610100808354040283529160200191610108565b820191906000526020600020905b8154815290600101906020018083116100eb57829003601f168201915b505050505090806002015490806003015490806004018054610129906103fd565b80601f0160208091040260200160405190810160405280929190818152602001828054610155906103fd565b80156101a25780601f10610177576101008083540402835291602001916101a2565b820191906000526020600020905b81548152906001019060200180831161018557829003601f168201915b5050505050908060050160009054906101000a900460ff16908060050160019054906101000a900473ffffffffffffffffffffffffffffffffffffffff16905087565b600080fd5b6000819050919050565b6101fd816101ea565b811461020857600080fd5b50565b60008135905061021a816101f4565b92915050565b600060208284031215610236576102356101e5565b5b60006102448482850161020b565b91505092915050565b610256816101ea565b82525050565b600081519050919050565b600082825260208201905092915050565b60005b8381101561029657808201518184015260208101905061027b565b838111156102a5576000848401525b50505050565b6000601f19601f8301169050919050565b60006102c78261025c565b6102d18185610267565b93506102e1818560208601610278565b6102ea816102ab565b840191505092915050565b60008115159050919050565b61030a816102f5565b82525050565b600073ffffffffffffffffffffffffffffffffffffffff82169050919050565b600061033b82610310565b9050919050565b61034b81610330565b82525050565b600060e082019050610366600083018a61024d565b818103602083015261037881896102bc565b9050610387604083018861024d565b610394606083018761024d565b81810360808301526103a681866102bc565b90506103b560a0830185610301565b6103c260c0830184610342565b98975050505050505050565b7f4e487b7100000000000000000000000000000000000000000000000000000000600052602260045260246000fd5b6000600282049050600182168061041557607f821691505b602082108103610428576104276103ce565b5b5091905056fea26469706673582212209dbe6c05802de94c71f0272aaa9342b2396be544a8bc7c6f434e5418c0f786fa64736f6c634300080d0033",
  "immutableReferences": {},
  "source": "// SPDX-License-Identifier: MIT\r\npragma solidity >=0.4.22 <0.9.0;\r\ncontract Product{\r\n    uint pid;\r\n    struct product {\r\n        uint product_id;\r\n        string product_name;\r\n        uint product_price;\r\n        uint product_amount;\r\n        string product_category;\r\n        bool isAuthorised;\r\n        address owner;\r\n    }\r\n    mapping(uint=>product) public product_map;\r\n   \r\n}",
  "sourcePath": "C:\\Users\\shubh\\OneDrive\\Desktop\\Agriculture-Supply-Chain-Management\\ASCM\\contracts\\product.sol",
  "compiler": {
    "name": "solc",
    "version": "0.8.13+commit.abaa5c0e.Emscripten.clang"
  },
  "schemaVersion": "3.4.7",
  "updatedAt": "2022-04-24T13:55:59.763Z",
  "networkType": "ethereum",
  "devdoc": {
    "kind": "dev",
    "methods": {},
    "version": 1
  },
  "userdoc": {
    "kind": "user",
    "methods": {},
    "version": 1
  }
}